{
  "contractName": "AssetsRelay",
  "abi": [
    {
      "constant": true,
      "inputs": [],
      "name": "owner",
      "outputs": [
        {
          "name": "",
          "type": "address"
        }
      ],
      "payable": false,
      "stateMutability": "view",
      "type": "function"
    },
    {
      "constant": true,
      "inputs": [],
      "name": "createdAt",
      "outputs": [
        {
          "name": "",
          "type": "uint256"
        }
      ],
      "payable": false,
      "stateMutability": "view",
      "type": "function"
    },
    {
      "constant": true,
      "inputs": [],
      "name": "assetsContract",
      "outputs": [
        {
          "name": "",
          "type": "address"
        }
      ],
      "payable": false,
      "stateMutability": "view",
      "type": "function"
    },
    {
      "inputs": [
        {
          "name": "aContract",
          "type": "address"
        }
      ],
      "payable": false,
      "stateMutability": "nonpayable",
      "type": "constructor"
    },
    {
      "constant": false,
      "inputs": [
        {
          "name": "aContract",
          "type": "address"
        }
      ],
      "name": "setContract",
      "outputs": [],
      "payable": false,
      "stateMutability": "nonpayable",
      "type": "function"
    },
    {
      "constant": false,
      "inputs": [
        {
          "name": "publicKeys",
          "type": "address[]"
        },
        {
          "name": "level",
          "type": "int256"
        }
      ],
      "name": "setPublisherLevel",
      "outputs": [],
      "payable": false,
      "stateMutability": "nonpayable",
      "type": "function"
    },
    {
      "constant": false,
      "inputs": [
        {
          "name": "publicKeys",
          "type": "address[]"
        }
      ],
      "name": "disablePublisher",
      "outputs": [],
      "payable": false,
      "stateMutability": "nonpayable",
      "type": "function"
    },
    {
      "constant": true,
      "inputs": [],
      "name": "getPublishers",
      "outputs": [
        {
          "name": "",
          "type": "address[]"
        }
      ],
      "payable": false,
      "stateMutability": "view",
      "type": "function"
    },
    {
      "constant": true,
      "inputs": [
        {
          "name": "publicKey",
          "type": "address"
        }
      ],
      "name": "getPublisherByAddress",
      "outputs": [
        {
          "name": "",
          "type": "address"
        },
        {
          "name": "",
          "type": "int256"
        },
        {
          "name": "",
          "type": "uint256"
        }
      ],
      "payable": false,
      "stateMutability": "view",
      "type": "function"
    },
    {
      "constant": false,
      "inputs": [
        {
          "name": "hash",
          "type": "string"
        },
        {
          "name": "status",
          "type": "int256"
        }
      ],
      "name": "sign",
      "outputs": [],
      "payable": false,
      "stateMutability": "nonpayable",
      "type": "function"
    },
    {
      "constant": true,
      "inputs": [
        {
          "name": "hash",
          "type": "string"
        }
      ],
      "name": "verify",
      "outputs": [
        {
          "name": "",
          "type": "address"
        },
        {
          "name": "",
          "type": "int256"
        },
        {
          "name": "",
          "type": "int256"
        },
        {
          "name": "",
          "type": "uint256"
        }
      ],
      "payable": false,
      "stateMutability": "view",
      "type": "function"
    },
    {
      "constant": true,
      "inputs": [
        {
          "name": "hash",
          "type": "string"
        },
        {
          "name": "assetIndex",
          "type": "uint256"
        }
      ],
      "name": "verifyByIndex",
      "outputs": [
        {
          "name": "",
          "type": "address"
        },
        {
          "name": "",
          "type": "int256"
        },
        {
          "name": "",
          "type": "int256"
        },
        {
          "name": "",
          "type": "uint256"
        }
      ],
      "payable": false,
      "stateMutability": "view",
      "type": "function"
    },
    {
      "constant": true,
      "inputs": [],
      "name": "getAssetCount",
      "outputs": [
        {
          "name": "",
          "type": "uint256"
        }
      ],
      "payable": false,
      "stateMutability": "view",
      "type": "function"
    },
    {
      "constant": true,
      "inputs": [
        {
          "name": "hash",
          "type": "string"
        }
      ],
      "name": "getAssetCountForHash",
      "outputs": [
        {
          "name": "",
          "type": "uint256"
        }
      ],
      "payable": false,
      "stateMutability": "view",
      "type": "function"
    }
  ],
  "bytecode": "0x608060405234801561001057600080fd5b50604051602080610fcd8339810180604052810190808051906020019092919050505080600260006101000a81548173ffffffffffffffffffffffffffffffffffffffff021916908373ffffffffffffffffffffffffffffffffffffffff160217905550336000806101000a81548173ffffffffffffffffffffffffffffffffffffffff021916908373ffffffffffffffffffffffffffffffffffffffff1602179055504260018190555050610f02806100cb6000396000f3006080604052600436106100c5576000357c0100000000000000000000000000000000000000000000000000000000900463ffffffff16806328f7f9b8146100ca57806338052e271461010f57806354df1eab146101a05780636c6071aa146101db57806375f890ab146102475780638da5cb5b1461028a578063a0aead4d146102e1578063bb9c6c3e1461030c578063bf91e82f1461039c578063c9e07f09146103eb578063cf09e0d014610430578063d6ce25a91461045b578063ddfe5b2d146104f5575b600080fd5b3480156100d657600080fd5b5061010d6004803603810190808035906020019082018035906020019190919293919293908035906020019092919050505061054c565b005b34801561011b57600080fd5b50610150600480360381019080803573ffffffffffffffffffffffffffffffffffffffff16906020019092919050505061061c565b604051808473ffffffffffffffffffffffffffffffffffffffff1673ffffffffffffffffffffffffffffffffffffffff168152602001838152602001828152602001935050505060405180910390f35b3480156101ac57600080fd5b506101d960048036038101908080359060200190820180359060200191909192939192939050505061073a565b005b3480156101e757600080fd5b506101f0610804565b6040518080602001828103825283818151815260200191508051906020019060200280838360005b83811015610233578082015181840152602081019050610218565b505050509050019250505060405180910390f35b34801561025357600080fd5b50610288600480360381019080803573ffffffffffffffffffffffffffffffffffffffff169060200190929190505050610922565b005b34801561029657600080fd5b5061029f6109bc565b604051808273ffffffffffffffffffffffffffffffffffffffff1673ffffffffffffffffffffffffffffffffffffffff16815260200191505060405180910390f35b3480156102ed57600080fd5b506102f66109e1565b6040518082815260200191505060405180910390f35b34801561031857600080fd5b50610345600480360381019080803590602001908201803590602001919091929391929390505050610aa9565b604051808573ffffffffffffffffffffffffffffffffffffffff1673ffffffffffffffffffffffffffffffffffffffff16815260200184815260200183815260200182815260200194505050505060405180910390f35b3480156103a857600080fd5b506103d5600480360381019080803590602001908201803590602001919091929391929390505050610bc4565b6040518082815260200191505060405180910390f35b3480156103f757600080fd5b5061042e60048036038101908080359060200190820180359060200191909192939192939080359060200190929190505050610cb4565b005b34801561043c57600080fd5b50610445610d87565b6040518082815260200191505060405180910390f35b34801561046757600080fd5b5061049e60048036038101908080359060200190820180359060200191909192939192939080359060200190929190505050610d8d565b604051808573ffffffffffffffffffffffffffffffffffffffff1673ffffffffffffffffffffffffffffffffffffffff16815260200184815260200183815260200182815260200194505050505060405180910390f35b34801561050157600080fd5b5061050a610eb0565b604051808273ffffffffffffffffffffffffffffffffffffffff1673ffffffffffffffffffffffffffffffffffffffff16815260200191505060405180910390f35b600260009054906101000a900473ffffffffffffffffffffffffffffffffffffffff1673ffffffffffffffffffffffffffffffffffffffff166328f7f9b88484846040518463ffffffff167c0100000000000000000000000000000000000000000000000000000000028152600401808060200183815260200182810382528585828181526020019250808284378201915050945050505050600060405180830381600087803b1580156105ff57600080fd5b505af1158015610613573d6000803e3d6000fd5b50505050505050565b6000806000600260009054906101000a900473ffffffffffffffffffffffffffffffffffffffff1673ffffffffffffffffffffffffffffffffffffffff166338052e27856040518263ffffffff167c0100000000000000000000000000000000000000000000000000000000028152600401808273ffffffffffffffffffffffffffffffffffffffff1673ffffffffffffffffffffffffffffffffffffffff168152602001915050606060405180830381600087803b1580156106de57600080fd5b505af11580156106f2573d6000803e3d6000fd5b505050506040513d606081101561070857600080fd5b810190808051906020019092919080519060200190929190805190602001909291905050509250925092509193909250565b600260009054906101000a900473ffffffffffffffffffffffffffffffffffffffff1673ffffffffffffffffffffffffffffffffffffffff166354df1eab83836040518363ffffffff167c01000000000000000000000000000000000000000000000000000000000281526004018080602001828103825284848281815260200192506020028082843782019150509350505050600060405180830381600087803b1580156107e857600080fd5b505af11580156107fc573d6000803e3d6000fd5b505050505050565b6060600260009054906101000a900473ffffffffffffffffffffffffffffffffffffffff1673ffffffffffffffffffffffffffffffffffffffff16636c6071aa6040518163ffffffff167c0100000000000000000000000000000000000000000000000000000000028152600401600060405180830381600087803b15801561088c57600080fd5b505af11580156108a0573d6000803e3d6000fd5b505050506040513d6000823e3d601f19601f8201168201806040525060208110156108ca57600080fd5b8101908080516401000000008111156108e257600080fd5b828101905060208101848111156108f857600080fd5b815185602082028301116401000000008211171561091557600080fd5b5050929190505050905090565b6000809054906101000a900473ffffffffffffffffffffffffffffffffffffffff1673ffffffffffffffffffffffffffffffffffffffff163273ffffffffffffffffffffffffffffffffffffffff1614156109b95780600260006101000a81548173ffffffffffffffffffffffffffffffffffffffff021916908373ffffffffffffffffffffffffffffffffffffffff1602179055505b50565b6000809054906101000a900473ffffffffffffffffffffffffffffffffffffffff1681565b6000600260009054906101000a900473ffffffffffffffffffffffffffffffffffffffff1673ffffffffffffffffffffffffffffffffffffffff1663a0aead4d6040518163ffffffff167c0100000000000000000000000000000000000000000000000000000000028152600401602060405180830381600087803b158015610a6957600080fd5b505af1158015610a7d573d6000803e3d6000fd5b505050506040513d6020811015610a9357600080fd5b8101908080519060200190929190505050905090565b600080600080600260009054906101000a900473ffffffffffffffffffffffffffffffffffffffff1673ffffffffffffffffffffffffffffffffffffffff1663bb9c6c3e87876040518363ffffffff167c01000000000000000000000000000000000000000000000000000000000281526004018080602001828103825284848281815260200192508082843782019150509350505050608060405180830381600087803b158015610b5a57600080fd5b505af1158015610b6e573d6000803e3d6000fd5b505050506040513d6080811015610b8457600080fd5b8101908080519060200190929190805190602001909291908051906020019092919080519060200190929190505050935093509350935092959194509250565b6000600260009054906101000a900473ffffffffffffffffffffffffffffffffffffffff1673ffffffffffffffffffffffffffffffffffffffff1663bf91e82f84846040518363ffffffff167c01000000000000000000000000000000000000000000000000000000000281526004018080602001828103825284848281815260200192508082843782019150509350505050602060405180830381600087803b158015610c7157600080fd5b505af1158015610c85573d6000803e3d6000fd5b505050506040513d6020811015610c9b57600080fd5b8101908080519060200190929190505050905092915050565b600260009054906101000a900473ffffffffffffffffffffffffffffffffffffffff1673ffffffffffffffffffffffffffffffffffffffff1663c9e07f098484846040518463ffffffff167c0100000000000000000000000000000000000000000000000000000000028152600401808060200183815260200182810382528585828181526020019250602002808284378201915050945050505050600060405180830381600087803b158015610d6a57600080fd5b505af1158015610d7e573d6000803e3d6000fd5b50505050505050565b60015481565b600080600080600260009054906101000a900473ffffffffffffffffffffffffffffffffffffffff1673ffffffffffffffffffffffffffffffffffffffff1663d6ce25a98888886040518463ffffffff167c0100000000000000000000000000000000000000000000000000000000028152600401808060200183815260200182810382528585828181526020019250808284378201915050945050505050608060405180830381600087803b158015610e4657600080fd5b505af1158015610e5a573d6000803e3d6000fd5b505050506040513d6080811015610e7057600080fd5b8101908080519060200190929190805190602001909291908051906020019092919080519060200190929190505050935093509350935093509350935093565b600260009054906101000a900473ffffffffffffffffffffffffffffffffffffffff16815600a165627a7a723058200e72ee1148ce0a7160899be5eab8c2c0b9a0bb97503690b83c0462340a321c8f0029",
  "source": "/*\n * Copyright (c) 2018-2019 vChain, Inc. All Rights Reserved.\n * This software is released under GPL3.\n * The full license information can be found under:\n * https://www.gnu.org/licenses/gpl-3.0.en.html\n */\n\n\npragma solidity ^0.4.24;\n\nimport \"./Assets.sol\";\n\ncontract AssetsRelay is Assets {\n    address public owner;\n    uint public createdAt;\n    Assets public assetsContract;\n\n    modifier restrictToOwner {\n        if (tx.origin == owner) _;\n    }\n\n    constructor(Assets aContract) public {\n        assetsContract = aContract;\n        owner = msg.sender;\n        createdAt = now;\n    }\n\n    function setContract(Assets aContract) public restrictToOwner {\n        assetsContract = aContract;\n    }\n\n    function setPublisherLevel(address[] publicKeys, int level) external {\n        assetsContract.setPublisherLevel(publicKeys, level);\n    }\n\n    function disablePublisher(address[] publicKeys) external {\n        assetsContract.disablePublisher(publicKeys);\n    }\n\n    function getPublishers() external view returns (address[]) {\n        return assetsContract.getPublishers();\n    }\n\n    function getPublisherByAddress(address publicKey) external view returns (address, int, uint) {\n        return assetsContract.getPublisherByAddress(publicKey);\n    }\n\n    function sign(string hash, int status) external {\n        assetsContract.sign(hash, status);\n    }\n\n    function verify(string hash) external view returns (address, int, int, uint) {\n        return assetsContract.verify(hash);\n    }\n\n    function verifyByIndex(string hash, uint assetIndex) external view returns (address, int, int, uint) {\n        return assetsContract.verifyByIndex(hash, assetIndex);\n    }\n\n    function getAssetCount() external view returns (uint) {\n        return assetsContract.getAssetCount();\n    }\n\n    function getAssetCountForHash(string hash) external view returns (uint) {\n        return assetsContract.getAssetCountForHash(hash);\n    }\n}\n",
  "sourcePath": "/Users/ameingast/Development/vChain/contracts/contracts/AssetsRelay.sol",
  "compiler": {
    "name": "solc",
    "version": "0.4.25+commit.59dbf8f1.Emscripten.clang"
  },
  "schemaVersion": "2.0.2",
  "updatedAt": "2019-03-08T16:54:21.522Z"
}