{
  "contractName": "OrganisationsRelay",
  "abi": [
    {
      "constant": true,
      "inputs": [],
      "name": "organisationsContract",
      "outputs": [
        {
          "name": "",
          "type": "address"
        }
      ],
      "payable": false,
      "stateMutability": "view",
      "type": "function"
    },
    {
      "constant": true,
      "inputs": [],
      "name": "owner",
      "outputs": [
        {
          "name": "",
          "type": "address"
        }
      ],
      "payable": false,
      "stateMutability": "view",
      "type": "function"
    },
    {
      "constant": true,
      "inputs": [],
      "name": "createdAt",
      "outputs": [
        {
          "name": "",
          "type": "uint256"
        }
      ],
      "payable": false,
      "stateMutability": "view",
      "type": "function"
    },
    {
      "inputs": [
        {
          "name": "oContract",
          "type": "address"
        }
      ],
      "payable": false,
      "stateMutability": "nonpayable",
      "type": "constructor"
    },
    {
      "constant": false,
      "inputs": [
        {
          "name": "id",
          "type": "string"
        },
        {
          "name": "organisationOwner",
          "type": "address"
        }
      ],
      "name": "addOrganisation",
      "outputs": [],
      "payable": false,
      "stateMutability": "nonpayable",
      "type": "function"
    },
    {
      "constant": false,
      "inputs": [
        {
          "name": "id",
          "type": "string"
        }
      ],
      "name": "removeOrganisation",
      "outputs": [],
      "payable": false,
      "stateMutability": "nonpayable",
      "type": "function"
    },
    {
      "constant": false,
      "inputs": [
        {
          "name": "oldId",
          "type": "string"
        },
        {
          "name": "newId",
          "type": "string"
        }
      ],
      "name": "renameOrganisation",
      "outputs": [],
      "payable": false,
      "stateMutability": "nonpayable",
      "type": "function"
    },
    {
      "constant": false,
      "inputs": [
        {
          "name": "id",
          "type": "string"
        },
        {
          "name": "organisationOwner",
          "type": "address"
        }
      ],
      "name": "changeOrganisationOwner",
      "outputs": [],
      "payable": false,
      "stateMutability": "nonpayable",
      "type": "function"
    },
    {
      "constant": true,
      "inputs": [
        {
          "name": "id",
          "type": "string"
        }
      ],
      "name": "getOrganisation",
      "outputs": [
        {
          "name": "",
          "type": "address"
        },
        {
          "name": "",
          "type": "address[]"
        },
        {
          "name": "",
          "type": "string"
        },
        {
          "name": "",
          "type": "uint256"
        }
      ],
      "payable": false,
      "stateMutability": "view",
      "type": "function"
    },
    {
      "constant": true,
      "inputs": [
        {
          "name": "hash",
          "type": "bytes32"
        }
      ],
      "name": "getOrganisationByHash",
      "outputs": [
        {
          "name": "",
          "type": "address"
        },
        {
          "name": "",
          "type": "address[]"
        },
        {
          "name": "",
          "type": "string"
        },
        {
          "name": "",
          "type": "uint256"
        }
      ],
      "payable": false,
      "stateMutability": "view",
      "type": "function"
    },
    {
      "constant": true,
      "inputs": [
        {
          "name": "index",
          "type": "uint256"
        }
      ],
      "name": "getOrganisationByIndex",
      "outputs": [
        {
          "name": "",
          "type": "address"
        },
        {
          "name": "",
          "type": "address[]"
        },
        {
          "name": "",
          "type": "string"
        },
        {
          "name": "",
          "type": "uint256"
        }
      ],
      "payable": false,
      "stateMutability": "view",
      "type": "function"
    },
    {
      "constant": true,
      "inputs": [],
      "name": "getOrganisationCount",
      "outputs": [
        {
          "name": "",
          "type": "uint256"
        }
      ],
      "payable": false,
      "stateMutability": "view",
      "type": "function"
    },
    {
      "constant": false,
      "inputs": [
        {
          "name": "id",
          "type": "string"
        },
        {
          "name": "members",
          "type": "address[]"
        }
      ],
      "name": "setMembers",
      "outputs": [],
      "payable": false,
      "stateMutability": "nonpayable",
      "type": "function"
    }
  ],
  "bytecode": "0x608060405234801561001057600080fd5b506040516020806114388339810180604052810190808051906020019092919050505080600260006101000a81548173ffffffffffffffffffffffffffffffffffffffff021916908373ffffffffffffffffffffffffffffffffffffffff160217905550326000806101000a81548173ffffffffffffffffffffffffffffffffffffffff021916908373ffffffffffffffffffffffffffffffffffffffff160217905550426001819055505061136d806100cb6000396000f3006080604052600436106100ba576000357c0100000000000000000000000000000000000000000000000000000000900463ffffffff16806303a4692a146100bf57806304fc19021461011657806306e80cd91461023e57806313ed4cb61461036a57806350a38744146103a55780638da5cb5b146104db578063b082b9c714610532578063cf09e0d01461055d578063d317f35f14610588578063f26937b5146105db578063f4e1bb8714610636578063fe794b0014610689575b600080fd5b3480156100cb57600080fd5b506100d46106e4565b604051808273ffffffffffffffffffffffffffffffffffffffff1673ffffffffffffffffffffffffffffffffffffffff16815260200191505060405180910390f35b34801561012257600080fd5b506101416004803603810190808035906020019092919050505061070a565b604051808573ffffffffffffffffffffffffffffffffffffffff1673ffffffffffffffffffffffffffffffffffffffff1681526020018060200180602001848152602001838103835286818151815260200191508051906020019060200280838360005b838110156101c05780820151818401526020810190506101a5565b50505050905001838103825285818151815260200191508051906020019080838360005b838110156101ff5780820151818401526020810190506101e4565b50505050905090810190601f16801561022c5780820380516001836020036101000a031916815260200191505b50965050505050505060405180910390f35b34801561024a57600080fd5b5061026d60048036038101908080356000191690602001909291905050506108a8565b604051808573ffffffffffffffffffffffffffffffffffffffff1673ffffffffffffffffffffffffffffffffffffffff1681526020018060200180602001848152602001838103835286818151815260200191508051906020019060200280838360005b838110156102ec5780820151818401526020810190506102d1565b50505050905001838103825285818151815260200191508051906020019080838360005b8381101561032b578082015181840152602081019050610310565b50505050905090810190601f1680156103585780820380516001836020036101000a031916815260200191505b50965050505050505060405180910390f35b34801561037657600080fd5b506103a3600480360381019080803590602001908201803590602001919091929391929390505050610a4e565b005b3480156103b157600080fd5b506103de600480360381019080803590602001908201803590602001919091929391929390505050610b6b565b604051808573ffffffffffffffffffffffffffffffffffffffff1673ffffffffffffffffffffffffffffffffffffffff1681526020018060200180602001848152602001838103835286818151815260200191508051906020019060200280838360005b8381101561045d578082015181840152602081019050610442565b50505050905001838103825285818151815260200191508051906020019080838360005b8381101561049c578082015181840152602081019050610481565b50505050905090810190601f1680156104c95780820380516001836020036101000a031916815260200191505b50965050505050505060405180910390f35b3480156104e757600080fd5b506104f0610d25565b604051808273ffffffffffffffffffffffffffffffffffffffff1673ffffffffffffffffffffffffffffffffffffffff16815260200191505060405180910390f35b34801561053e57600080fd5b50610547610d4a565b6040518082815260200191505060405180910390f35b34801561056957600080fd5b50610572610e12565b6040518082815260200191505060405180910390f35b34801561059457600080fd5b506105d9600480360381019080803590602001908201803590602001919091929391929390803590602001908201803590602001919091929391929390505050610e18565b005b3480156105e757600080fd5b50610634600480360381019080803590602001908201803590602001919091929391929390803573ffffffffffffffffffffffffffffffffffffffff169060200190929190505050610f5c565b005b34801561064257600080fd5b506106876004803603810190808035906020019082018035906020019190919293919293908035906020019082018035906020019190919293919293905050506110ae565b005b34801561069557600080fd5b506106e2600480360381019080803590602001908201803590602001919091929391929390803573ffffffffffffffffffffffffffffffffffffffff1690602001909291905050506111ef565b005b600260009054906101000a900473ffffffffffffffffffffffffffffffffffffffff1681565b60006060806000600260009054906101000a900473ffffffffffffffffffffffffffffffffffffffff1673ffffffffffffffffffffffffffffffffffffffff166304fc1902866040518263ffffffff167c010000000000000000000000000000000000000000000000000000000002815260040180828152602001915050600060405180830381600087803b1580156107a257600080fd5b505af11580156107b6573d6000803e3d6000fd5b505050506040513d6000823e3d601f19601f8201168201806040525060808110156107e057600080fd5b8101908080519060200190929190805164010000000081111561080257600080fd5b8281019050602081018481111561081857600080fd5b815185602082028301116401000000008211171561083557600080fd5b5050929190602001805164010000000081111561085157600080fd5b8281019050602081018481111561086757600080fd5b815185600182028301116401000000008211171561088457600080fd5b50509291906020018051906020019092919050505093509350935093509193509193565b60006060806000600260009054906101000a900473ffffffffffffffffffffffffffffffffffffffff1673ffffffffffffffffffffffffffffffffffffffff166306e80cd9866040518263ffffffff167c0100000000000000000000000000000000000000000000000000000000028152600401808260001916600019168152602001915050600060405180830381600087803b15801561094857600080fd5b505af115801561095c573d6000803e3d6000fd5b505050506040513d6000823e3d601f19601f82011682018060405250608081101561098657600080fd5b810190808051906020019092919080516401000000008111156109a857600080fd5b828101905060208101848111156109be57600080fd5b81518560208202830111640100000000821117156109db57600080fd5b505092919060200180516401000000008111156109f757600080fd5b82810190506020810184811115610a0d57600080fd5b8151856001820283011164010000000082111715610a2a57600080fd5b50509291906020018051906020019092919050505093509350935093509193509193565b6000809054906101000a900473ffffffffffffffffffffffffffffffffffffffff1673ffffffffffffffffffffffffffffffffffffffff163273ffffffffffffffffffffffffffffffffffffffff161415610b6757600260009054906101000a900473ffffffffffffffffffffffffffffffffffffffff1673ffffffffffffffffffffffffffffffffffffffff166313ed4cb683836040518363ffffffff167c01000000000000000000000000000000000000000000000000000000000281526004018080602001828103825284848281815260200192508082843782019150509350505050600060405180830381600087803b158015610b4e57600080fd5b505af1158015610b62573d6000803e3d6000fd5b505050505b5050565b60006060806000600260009054906101000a900473ffffffffffffffffffffffffffffffffffffffff1673ffffffffffffffffffffffffffffffffffffffff166350a3874487876040518363ffffffff167c01000000000000000000000000000000000000000000000000000000000281526004018080602001828103825284848281815260200192508082843782019150509350505050600060405180830381600087803b158015610c1d57600080fd5b505af1158015610c31573d6000803e3d6000fd5b505050506040513d6000823e3d601f19601f820116820180604052506080811015610c5b57600080fd5b81019080805190602001909291908051640100000000811115610c7d57600080fd5b82810190506020810184811115610c9357600080fd5b8151856020820283011164010000000082111715610cb057600080fd5b50509291906020018051640100000000811115610ccc57600080fd5b82810190506020810184811115610ce257600080fd5b8151856001820283011164010000000082111715610cff57600080fd5b505092919060200180519060200190929190505050935093509350935092959194509250565b6000809054906101000a900473ffffffffffffffffffffffffffffffffffffffff1681565b6000600260009054906101000a900473ffffffffffffffffffffffffffffffffffffffff1673ffffffffffffffffffffffffffffffffffffffff1663b082b9c76040518163ffffffff167c0100000000000000000000000000000000000000000000000000000000028152600401602060405180830381600087803b158015610dd257600080fd5b505af1158015610de6573d6000803e3d6000fd5b505050506040513d6020811015610dfc57600080fd5b8101908080519060200190929190505050905090565b60015481565b6000809054906101000a900473ffffffffffffffffffffffffffffffffffffffff1673ffffffffffffffffffffffffffffffffffffffff163273ffffffffffffffffffffffffffffffffffffffff161415610f5657600260009054906101000a900473ffffffffffffffffffffffffffffffffffffffff1673ffffffffffffffffffffffffffffffffffffffff1663d317f35f858585856040518563ffffffff167c010000000000000000000000000000000000000000000000000000000002815260040180806020018060200183810383528787828181526020019250808284378201915050838103825285858281815260200192506020028082843782019150509650505050505050600060405180830381600087803b158015610f3d57600080fd5b505af1158015610f51573d6000803e3d6000fd5b505050505b50505050565b6000809054906101000a900473ffffffffffffffffffffffffffffffffffffffff1673ffffffffffffffffffffffffffffffffffffffff163273ffffffffffffffffffffffffffffffffffffffff1614156110a957600260009054906101000a900473ffffffffffffffffffffffffffffffffffffffff1673ffffffffffffffffffffffffffffffffffffffff1663f26937b58484846040518463ffffffff167c010000000000000000000000000000000000000000000000000000000002815260040180806020018373ffffffffffffffffffffffffffffffffffffffff1673ffffffffffffffffffffffffffffffffffffffff16815260200182810382528585828181526020019250808284378201915050945050505050600060405180830381600087803b15801561109057600080fd5b505af11580156110a4573d6000803e3d6000fd5b505050505b505050565b6000809054906101000a900473ffffffffffffffffffffffffffffffffffffffff1673ffffffffffffffffffffffffffffffffffffffff163273ffffffffffffffffffffffffffffffffffffffff1614156111e957600260009054906101000a900473ffffffffffffffffffffffffffffffffffffffff1673ffffffffffffffffffffffffffffffffffffffff1663f4e1bb87858585856040518563ffffffff167c010000000000000000000000000000000000000000000000000000000002815260040180806020018060200183810383528787828181526020019250808284378201915050838103825285858281815260200192508082843782019150509650505050505050600060405180830381600087803b1580156111d057600080fd5b505af11580156111e4573d6000803e3d6000fd5b505050505b50505050565b6000809054906101000a900473ffffffffffffffffffffffffffffffffffffffff1673ffffffffffffffffffffffffffffffffffffffff163273ffffffffffffffffffffffffffffffffffffffff16141561133c57600260009054906101000a900473ffffffffffffffffffffffffffffffffffffffff1673ffffffffffffffffffffffffffffffffffffffff1663fe794b008484846040518463ffffffff167c010000000000000000000000000000000000000000000000000000000002815260040180806020018373ffffffffffffffffffffffffffffffffffffffff1673ffffffffffffffffffffffffffffffffffffffff16815260200182810382528585828181526020019250808284378201915050945050505050600060405180830381600087803b15801561132357600080fd5b505af1158015611337573d6000803e3d6000fd5b505050505b5050505600a165627a7a72305820ceb632a7843fd7a9b697c8f28c07e5aeb5acddff55f159f269dd97c13037bbf70029",
  "source": "pragma solidity ^0.4.24;\n\nimport \"./OrganisationsV1.sol\";\n\ncontract OrganisationsRelay {\n    address public owner;\n    uint public createdAt;\n    OrganisationsV1 public organisationsContract;\n\n    modifier restrictToOwner {\n        if (tx.origin == owner) _;\n    }\n\n    constructor(OrganisationsV1 oContract) public {\n        organisationsContract = oContract;\n        owner = tx.origin;\n        createdAt = now;\n    }\n\n    function addOrganisation(string id, address organisationOwner) external restrictToOwner {\n        organisationsContract.addOrganisation(id, organisationOwner);\n    }\n\n    function removeOrganisation(string id) external restrictToOwner {\n        organisationsContract.removeOrganisation(id);\n    }\n\n    function renameOrganisation(string oldId, string newId) external restrictToOwner {\n        organisationsContract.renameOrganisation(oldId, newId);\n    }\n\n    function changeOrganisationOwner(string id, address organisationOwner) external restrictToOwner {\n        organisationsContract.changeOrganisationOwner(id, organisationOwner);\n    }\n\n    function getOrganisation(string id) external view returns (address, address[], string, uint) {\n        return organisationsContract.getOrganisation(id);\n    }\n\n    function getOrganisationByHash(bytes32 hash) external view returns (address, address[], string, uint) {\n        return organisationsContract.getOrganisationByHash(hash);\n    }\n\n    function getOrganisationByIndex(uint index) external view returns (address, address[], string, uint) {\n        return organisationsContract.getOrganisationByIndex(index);\n    }\n\n    function getOrganisationCount() external view returns (uint256) {\n        return organisationsContract.getOrganisationCount();\n    }\n\n    function setMembers(string id, address[] members) external restrictToOwner {\n        organisationsContract.setMembers(id, members);\n    }\n}\n",
  "sourcePath": "/app/organisations/contracts/OrganisationsRelay.sol",
  "compiler": {
    "name": "solc",
    "version": "0.4.24+commit.e67f0147.Emscripten.clang"
  },
  "schemaVersion": "2.0.1",
  "updatedAt": "2019-07-11T12:48:26.555Z"
}